{"contracts/Donation.sol":{"Donation":{"abi":[{"inputs":[],"stateMutability":"nonpayable","type":"constructor"},{"inputs":[],"name":"donate","outputs":[],"stateMutability":"payable","type":"function"},{"inputs":[],"name":"getDonations","outputs":[{"components":[{"internalType":"uint256","name":"id","type":"uint256"},{"internalType":"address","name":"donor","type":"address"},{"internalType":"uint256","name":"value","type":"uint256"}],"internalType":"struct Donation.Donor[]","name":"","type":"tuple[]"}],"stateMutability":"view","type":"function"},{"inputs":[],"name":"total","outputs":[{"internalType":"uint256","name":"","type":"uint256"}],"stateMutability":"view","type":"function"},{"inputs":[],"name":"withdraw","outputs":[],"stateMutability":"payable","type":"function"}],"devdoc":{"kind":"dev","methods":{},"version":1},"evm":{"bytecode":{"linkReferences":{},"object":"6080604052348015600f57600080fd5b50600080546001600160a01b03191633179055610498806100316000396000f3fe60806040526004361061003f5760003560e01c80632ddbd13a146100445780633ccfd60b1461006d578063e25f841614610077578063ed88c68e14610099575b600080fd5b34801561005057600080fd5b5061005a60015481565b6040519081526020015b60405180910390f35b6100756100a1565b005b34801561008357600080fd5b5061008c6101fc565b60405161006491906103b5565b61007561027e565b6000546001600160a01b031633146101125760405162461bcd60e51b815260206004820152602960248201527f566f63c3aa206ec3a36f20c3a9206f2070726f7072696574c3a172696f20646f60448201526820636f6e747261746f60b81b60648201526084015b60405180910390fd5b47806101605760405162461bcd60e51b815260206004820152601f60248201527f42616c616e636520696e737566696369656e74652070617261207361717565006044820152606401610109565b604051600090339083908381818185875af1925050503d80600081146101a2576040519150601f19603f3d011682016040523d82523d6000602084013e6101a7565b606091505b50509050806101f85760405162461bcd60e51b815260206004820152601760248201527f46616c6861206e61207472616e73666572c3aa6e6369610000000000000000006044820152606401610109565b5050565b60606003805480602002602001604051908101604052809291908181526020016000905b828210156102755760008481526020908190206040805160608101825260038602909201805483526001808201546001600160a01b031684860152600290910154918301919091529083529092019101610220565b50505050905090565b600034116102c05760405162461bcd60e51b815260206004820152600f60248201526e76616c6f7220696e76c3a16c69646f60881b6044820152606401610109565b600280549060006102d083610430565b90915550506040805160608101825260025481523360208201908152349282018381526003805460018082018355600083815286517fc2575a0e9e593c00f959f8c92f12db2869c3395a3b0502d05e2516446f71f85b939094029283019390935593517fc2575a0e9e593c00f959f8c92f12db2869c3395a3b0502d05e2516446f71f85c820180546001600160a01b0319166001600160a01b0390921691909117905591517fc2575a0e9e593c00f959f8c92f12db2869c3395a3b0502d05e2516446f71f85d9092019190915581549293926103ad908490610449565b909155505050565b602080825282518282018190526000918401906040840190835b8181101561040f578351805184526020808201516001600160a01b03168186015260409182015191850191909152909301926060909201916001016103cf565b509095945050505050565b634e487b7160e01b600052601160045260246000fd5b6000600182016104425761044261041a565b5060010190565b8082018082111561045c5761045c61041a565b9291505056fea264697066735822122053a6d215c28d64c700d8021a7e9ee852d579594fa3dc4ae2197f7f8b2c5701fe64736f6c634300081d0033","opcodes":"PUSH1 0x80 PUSH1 0x40 MSTORE CALLVALUE DUP1 ISZERO PUSH1 0xF JUMPI PUSH1 0x0 DUP1 REVERT JUMPDEST POP PUSH1 0x0 DUP1 SLOAD PUSH1 0x1 PUSH1 0x1 PUSH1 0xA0 SHL SUB NOT AND CALLER OR SWAP1 SSTORE PUSH2 0x498 DUP1 PUSH2 0x31 PUSH1 0x0 CODECOPY PUSH1 0x0 RETURN INVALID PUSH1 0x80 PUSH1 0x40 MSTORE PUSH1 0x4 CALLDATASIZE LT PUSH2 0x3F JUMPI PUSH1 0x0 CALLDATALOAD PUSH1 0xE0 SHR DUP1 PUSH4 0x2DDBD13A EQ PUSH2 0x44 JUMPI DUP1 PUSH4 0x3CCFD60B EQ PUSH2 0x6D JUMPI DUP1 PUSH4 0xE25F8416 EQ PUSH2 0x77 JUMPI DUP1 PUSH4 0xED88C68E EQ PUSH2 0x99 JUMPI JUMPDEST PUSH1 0x0 DUP1 REVERT JUMPDEST CALLVALUE DUP1 ISZERO PUSH2 0x50 JUMPI PUSH1 0x0 DUP1 REVERT JUMPDEST POP PUSH2 0x5A PUSH1 0x1 SLOAD DUP2 JUMP JUMPDEST PUSH1 0x40 MLOAD SWAP1 DUP2 MSTORE PUSH1 0x20 ADD JUMPDEST PUSH1 0x40 MLOAD DUP1 SWAP2 SUB SWAP1 RETURN JUMPDEST PUSH2 0x75 PUSH2 0xA1 JUMP JUMPDEST STOP JUMPDEST CALLVALUE DUP1 ISZERO PUSH2 0x83 JUMPI PUSH1 0x0 DUP1 REVERT JUMPDEST POP PUSH2 0x8C PUSH2 0x1FC JUMP JUMPDEST PUSH1 0x40 MLOAD PUSH2 0x64 SWAP2 SWAP1 PUSH2 0x3B5 JUMP JUMPDEST PUSH2 0x75 PUSH2 0x27E JUMP JUMPDEST PUSH1 0x0 SLOAD PUSH1 0x1 PUSH1 0x1 PUSH1 0xA0 SHL SUB AND CALLER EQ PUSH2 0x112 JUMPI PUSH1 0x40 MLOAD PUSH3 0x461BCD PUSH1 0xE5 SHL DUP2 MSTORE PUSH1 0x20 PUSH1 0x4 DUP3 ADD MSTORE PUSH1 0x29 PUSH1 0x24 DUP3 ADD MSTORE PUSH32 0x566F63C3AA206EC3A36F20C3A9206F2070726F7072696574C3A172696F20646F PUSH1 0x44 DUP3 ADD MSTORE PUSH9 0x20636F6E747261746F PUSH1 0xB8 SHL PUSH1 0x64 DUP3 ADD MSTORE PUSH1 0x84 ADD JUMPDEST PUSH1 0x40 MLOAD DUP1 SWAP2 SUB SWAP1 REVERT JUMPDEST SELFBALANCE DUP1 PUSH2 0x160 JUMPI PUSH1 0x40 MLOAD PUSH3 0x461BCD PUSH1 0xE5 SHL DUP2 MSTORE PUSH1 0x20 PUSH1 0x4 DUP3 ADD MSTORE PUSH1 0x1F PUSH1 0x24 DUP3 ADD MSTORE PUSH32 0x42616C616E636520696E737566696369656E7465207061726120736171756500 PUSH1 0x44 DUP3 ADD MSTORE PUSH1 0x64 ADD PUSH2 0x109 JUMP JUMPDEST PUSH1 0x40 MLOAD PUSH1 0x0 SWAP1 CALLER SWAP1 DUP4 SWAP1 DUP4 DUP2 DUP2 DUP2 DUP6 DUP8 GAS CALL SWAP3 POP POP POP RETURNDATASIZE DUP1 PUSH1 0x0 DUP2 EQ PUSH2 0x1A2 JUMPI PUSH1 0x40 MLOAD SWAP2 POP PUSH1 0x1F NOT PUSH1 0x3F RETURNDATASIZE ADD AND DUP3 ADD PUSH1 0x40 MSTORE RETURNDATASIZE DUP3 MSTORE RETURNDATASIZE PUSH1 0x0 PUSH1 0x20 DUP5 ADD RETURNDATACOPY PUSH2 0x1A7 JUMP JUMPDEST PUSH1 0x60 SWAP2 POP JUMPDEST POP POP SWAP1 POP DUP1 PUSH2 0x1F8 JUMPI PUSH1 0x40 MLOAD PUSH3 0x461BCD PUSH1 0xE5 SHL DUP2 MSTORE PUSH1 0x20 PUSH1 0x4 DUP3 ADD MSTORE PUSH1 0x17 PUSH1 0x24 DUP3 ADD MSTORE PUSH32 0x46616C6861206E61207472616E73666572C3AA6E636961000000000000000000 PUSH1 0x44 DUP3 ADD MSTORE PUSH1 0x64 ADD PUSH2 0x109 JUMP JUMPDEST POP POP JUMP JUMPDEST PUSH1 0x60 PUSH1 0x3 DUP1 SLOAD DUP1 PUSH1 0x20 MUL PUSH1 0x20 ADD PUSH1 0x40 MLOAD SWAP1 DUP2 ADD PUSH1 0x40 MSTORE DUP1 SWAP3 SWAP2 SWAP1 DUP2 DUP2 MSTORE PUSH1 0x20 ADD PUSH1 0x0 SWAP1 JUMPDEST DUP3 DUP3 LT ISZERO PUSH2 0x275 JUMPI PUSH1 0x0 DUP5 DUP2 MSTORE PUSH1 0x20 SWAP1 DUP2 SWAP1 KECCAK256 PUSH1 0x40 DUP1 MLOAD PUSH1 0x60 DUP2 ADD DUP3 MSTORE PUSH1 0x3 DUP7 MUL SWAP1 SWAP3 ADD DUP1 SLOAD DUP4 MSTORE PUSH1 0x1 DUP1 DUP3 ADD SLOAD PUSH1 0x1 PUSH1 0x1 PUSH1 0xA0 SHL SUB AND DUP5 DUP7 ADD MSTORE PUSH1 0x2 SWAP1 SWAP2 ADD SLOAD SWAP2 DUP4 ADD SWAP2 SWAP1 SWAP2 MSTORE SWAP1 DUP4 MSTORE SWAP1 SWAP3 ADD SWAP2 ADD PUSH2 0x220 JUMP JUMPDEST POP POP POP POP SWAP1 POP SWAP1 JUMP JUMPDEST PUSH1 0x0 CALLVALUE GT PUSH2 0x2C0 JUMPI PUSH1 0x40 MLOAD PUSH3 0x461BCD PUSH1 0xE5 SHL DUP2 MSTORE PUSH1 0x20 PUSH1 0x4 DUP3 ADD MSTORE PUSH1 0xF PUSH1 0x24 DUP3 ADD MSTORE PUSH15 0x76616C6F7220696E76C3A16C69646F PUSH1 0x88 SHL PUSH1 0x44 DUP3 ADD MSTORE PUSH1 0x64 ADD PUSH2 0x109 JUMP JUMPDEST PUSH1 0x2 DUP1 SLOAD SWAP1 PUSH1 0x0 PUSH2 0x2D0 DUP4 PUSH2 0x430 JUMP JUMPDEST SWAP1 SWAP2 SSTORE POP POP PUSH1 0x40 DUP1 MLOAD PUSH1 0x60 DUP2 ADD DUP3 MSTORE PUSH1 0x2 SLOAD DUP2 MSTORE CALLER PUSH1 0x20 DUP3 ADD SWAP1 DUP2 MSTORE CALLVALUE SWAP3 DUP3 ADD DUP4 DUP2 MSTORE PUSH1 0x3 DUP1 SLOAD PUSH1 0x1 DUP1 DUP3 ADD DUP4 SSTORE PUSH1 0x0 DUP4 DUP2 MSTORE DUP7 MLOAD PUSH32 0xC2575A0E9E593C00F959F8C92F12DB2869C3395A3B0502D05E2516446F71F85B SWAP4 SWAP1 SWAP5 MUL SWAP3 DUP4 ADD SWAP4 SWAP1 SWAP4 SSTORE SWAP4 MLOAD PUSH32 0xC2575A0E9E593C00F959F8C92F12DB2869C3395A3B0502D05E2516446F71F85C DUP3 ADD DUP1 SLOAD PUSH1 0x1 PUSH1 0x1 PUSH1 0xA0 SHL SUB NOT AND PUSH1 0x1 PUSH1 0x1 PUSH1 0xA0 SHL SUB SWAP1 SWAP3 AND SWAP2 SWAP1 SWAP2 OR SWAP1 SSTORE SWAP2 MLOAD PUSH32 0xC2575A0E9E593C00F959F8C92F12DB2869C3395A3B0502D05E2516446F71F85D SWAP1 SWAP3 ADD SWAP2 SWAP1 SWAP2 SSTORE DUP2 SLOAD SWAP3 SWAP4 SWAP3 PUSH2 0x3AD SWAP1 DUP5 SWAP1 PUSH2 0x449 JUMP JUMPDEST SWAP1 SWAP2 SSTORE POP POP POP JUMP JUMPDEST PUSH1 0x20 DUP1 DUP3 MSTORE DUP3 MLOAD DUP3 DUP3 ADD DUP2 SWAP1 MSTORE PUSH1 0x0 SWAP2 DUP5 ADD SWAP1 PUSH1 0x40 DUP5 ADD SWAP1 DUP4 JUMPDEST DUP2 DUP2 LT ISZERO PUSH2 0x40F JUMPI DUP4 MLOAD DUP1 MLOAD DUP5 MSTORE PUSH1 0x20 DUP1 DUP3 ADD MLOAD PUSH1 0x1 PUSH1 0x1 PUSH1 0xA0 SHL SUB AND DUP2 DUP7 ADD MSTORE PUSH1 0x40 SWAP2 DUP3 ADD MLOAD SWAP2 DUP6 ADD SWAP2 SWAP1 SWAP2 MSTORE SWAP1 SWAP4 ADD SWAP3 PUSH1 0x60 SWAP1 SWAP3 ADD SWAP2 PUSH1 0x1 ADD PUSH2 0x3CF JUMP JUMPDEST POP SWAP1 SWAP6 SWAP5 POP POP POP POP POP JUMP JUMPDEST PUSH4 0x4E487B71 PUSH1 0xE0 SHL PUSH1 0x0 MSTORE PUSH1 0x11 PUSH1 0x4 MSTORE PUSH1 0x24 PUSH1 0x0 REVERT JUMPDEST PUSH1 0x0 PUSH1 0x1 DUP3 ADD PUSH2 0x442 JUMPI PUSH2 0x442 PUSH2 0x41A JUMP JUMPDEST POP PUSH1 0x1 ADD SWAP1 JUMP JUMPDEST DUP1 DUP3 ADD DUP1 DUP3 GT ISZERO PUSH2 0x45C JUMPI PUSH2 0x45C PUSH2 0x41A JUMP JUMPDEST SWAP3 SWAP2 POP POP JUMP INVALID LOG2 PUSH5 0x6970667358 0x22 SLT KECCAK256 MSTORE8 0xA6 0xD2 ISZERO 0xC2 DUP14 PUSH5 0xC700D8021A PUSH31 0x9EE852D579594FA3DC4AE2197F7F8B2C5701FE64736F6C634300081D003300 "},"gasEstimates":{"creation":{"codeDepositCost":"235200","executionCost":"24510","totalCost":"259710"},"external":{"donate()":"143738","getDonations()":"infinite","total()":"2262","withdraw()":"infinite"}},"methodIdentifiers":{"donate()":"ed88c68e","getDonations()":"e25f8416","total()":"2ddbd13a","withdraw()":"3ccfd60b"}},"storageLayout":{"storage":[{"astId":3,"contract":"contracts/Donation.sol:Donation","label":"owner","offset":0,"slot":"0","type":"t_address"},{"astId":5,"contract":"contracts/Donation.sol:Donation","label":"total","offset":0,"slot":"1","type":"t_uint256"},{"astId":7,"contract":"contracts/Donation.sol:Donation","label":"ids","offset":0,"slot":"2","type":"t_uint256"},{"astId":11,"contract":"contracts/Donation.sol:Donation","label":"donations","offset":0,"slot":"3","type":"t_array(t_struct(Donor)18_storage)dyn_storage"}],"types":{"t_address":{"encoding":"inplace","label":"address","numberOfBytes":"20"},"t_array(t_struct(Donor)18_storage)dyn_storage":{"base":"t_struct(Donor)18_storage","encoding":"dynamic_array","label":"struct Donation.Donor[]","numberOfBytes":"32"},"t_struct(Donor)18_storage":{"encoding":"inplace","label":"struct Donation.Donor","members":[{"astId":13,"contract":"contracts/Donation.sol:Donation","label":"id","offset":0,"slot":"0","type":"t_uint256"},{"astId":15,"contract":"contracts/Donation.sol:Donation","label":"donor","offset":0,"slot":"1","type":"t_address"},{"astId":17,"contract":"contracts/Donation.sol:Donation","label":"value","offset":0,"slot":"2","type":"t_uint256"}],"numberOfBytes":"96"},"t_uint256":{"encoding":"inplace","label":"uint256","numberOfBytes":"32"}}},"userdoc":{"kind":"user","methods":{},"version":1}}}}