{
  "_format": "hh-sol-artifact-1",
  "contractName": "Donation",
  "sourceName": "contracts/Donation.sol",
  "abi": [
    {
      "inputs": [],
      "stateMutability": "nonpayable",
      "type": "constructor"
    },
    {
      "inputs": [],
      "name": "donate",
      "outputs": [],
      "stateMutability": "payable",
      "type": "function"
    },
    {
      "inputs": [],
      "name": "getDonations",
      "outputs": [
        {
          "components": [
            {
              "internalType": "uint256",
              "name": "id",
              "type": "uint256"
            },
            {
              "internalType": "address",
              "name": "donor",
              "type": "address"
            },
            {
              "internalType": "uint256",
              "name": "value",
              "type": "uint256"
            }
          ],
          "internalType": "struct Donation.Donor[]",
          "name": "",
          "type": "tuple[]"
        }
      ],
      "stateMutability": "view",
      "type": "function"
    },
    {
      "inputs": [],
      "name": "total",
      "outputs": [
        {
          "internalType": "uint256",
          "name": "",
          "type": "uint256"
        }
      ],
      "stateMutability": "view",
      "type": "function"
    },
    {
      "inputs": [],
      "name": "withdraw",
      "outputs": [],
      "stateMutability": "payable",
      "type": "function"
    }
  ],
  "bytecode": "0x6080604052348015600f57600080fd5b50600080546001600160a01b03191633179055610498806100316000396000f3fe60806040526004361061003f5760003560e01c80632ddbd13a146100445780633ccfd60b1461006d578063e25f841614610077578063ed88c68e14610099575b600080fd5b34801561005057600080fd5b5061005a60015481565b6040519081526020015b60405180910390f35b6100756100a1565b005b34801561008357600080fd5b5061008c6101fc565b60405161006491906103b5565b61007561027e565b6000546001600160a01b031633146101125760405162461bcd60e51b815260206004820152602960248201527f566f63c3aa206ec3a36f20c3a9206f2070726f7072696574c3a172696f20646f60448201526820636f6e747261746f60b81b60648201526084015b60405180910390fd5b47806101605760405162461bcd60e51b815260206004820152601f60248201527f42616c616e636520696e737566696369656e74652070617261207361717565006044820152606401610109565b604051600090339083908381818185875af1925050503d80600081146101a2576040519150601f19603f3d011682016040523d82523d6000602084013e6101a7565b606091505b50509050806101f85760405162461bcd60e51b815260206004820152601760248201527f46616c6861206e61207472616e73666572c3aa6e6369610000000000000000006044820152606401610109565b5050565b60606003805480602002602001604051908101604052809291908181526020016000905b828210156102755760008481526020908190206040805160608101825260038602909201805483526001808201546001600160a01b031684860152600290910154918301919091529083529092019101610220565b50505050905090565b600034116102c05760405162461bcd60e51b815260206004820152600f60248201526e76616c6f7220696e76c3a16c69646f60881b6044820152606401610109565b600280549060006102d083610430565b90915550506040805160608101825260025481523360208201908152349282018381526003805460018082018355600083815286517fc2575a0e9e593c00f959f8c92f12db2869c3395a3b0502d05e2516446f71f85b939094029283019390935593517fc2575a0e9e593c00f959f8c92f12db2869c3395a3b0502d05e2516446f71f85c820180546001600160a01b0319166001600160a01b0390921691909117905591517fc2575a0e9e593c00f959f8c92f12db2869c3395a3b0502d05e2516446f71f85d9092019190915581549293926103ad908490610449565b909155505050565b602080825282518282018190526000918401906040840190835b8181101561040f578351805184526020808201516001600160a01b03168186015260409182015191850191909152909301926060909201916001016103cf565b509095945050505050565b634e487b7160e01b600052601160045260246000fd5b6000600182016104425761044261041a565b5060010190565b8082018082111561045c5761045c61041a565b9291505056fea264697066735822122053a6d215c28d64c700d8021a7e9ee852d579594fa3dc4ae2197f7f8b2c5701fe64736f6c634300081d0033",
  "linkReferences": {},
  "deployedLinkReferences": {}
}